{
  "_format": "hh-sol-artifact-1",
  "contractName": "VerificationMarket",
  "sourceName": "contracts/VerificationMarket.sol",
  "abi": [
    {
      "inputs": [
        {
          "internalType": "address",
          "name": "_claimRegistry",
          "type": "address"
        }
      ],
      "stateMutability": "nonpayable",
      "type": "constructor"
    },
    {
      "anonymous": false,
      "inputs": [
        {
          "indexed": true,
          "internalType": "uint256",
          "name": "claimId",
          "type": "uint256"
        },
        {
          "indexed": false,
          "internalType": "uint256",
          "name": "totalRewards",
          "type": "uint256"
        },
        {
          "indexed": false,
          "internalType": "uint256",
          "name": "totalPenalties",
          "type": "uint256"
        }
      ],
      "name": "ClaimSettled",
      "type": "event"
    },
    {
      "anonymous": false,
      "inputs": [
        {
          "indexed": true,
          "internalType": "address",
          "name": "user",
          "type": "address"
        },
        {
          "indexed": false,
          "internalType": "uint256",
          "name": "amount",
          "type": "uint256"
        }
      ],
      "name": "Deposit",
      "type": "event"
    },
    {
      "anonymous": false,
      "inputs": [
        {
          "indexed": true,
          "internalType": "uint256",
          "name": "claimId",
          "type": "uint256"
        }
      ],
      "name": "MarketOpened",
      "type": "event"
    },
    {
      "anonymous": false,
      "inputs": [
        {
          "indexed": true,
          "internalType": "uint256",
          "name": "claimId",
          "type": "uint256"
        },
        {
          "indexed": true,
          "internalType": "address",
          "name": "voter",
          "type": "address"
        },
        {
          "indexed": false,
          "internalType": "bool",
          "name": "support",
          "type": "bool"
        },
        {
          "indexed": false,
          "internalType": "uint256",
          "name": "amount",
          "type": "uint256"
        }
      ],
      "name": "Voted",
      "type": "event"
    },
    {
      "anonymous": false,
      "inputs": [
        {
          "indexed": true,
          "internalType": "address",
          "name": "user",
          "type": "address"
        },
        {
          "indexed": false,
          "internalType": "uint256",
          "name": "amount",
          "type": "uint256"
        }
      ],
      "name": "Withdraw",
      "type": "event"
    },
    {
      "inputs": [
        {
          "internalType": "address",
          "name": "",
          "type": "address"
        }
      ],
      "name": "balances",
      "outputs": [
        {
          "internalType": "uint256",
          "name": "",
          "type": "uint256"
        }
      ],
      "stateMutability": "view",
      "type": "function"
    },
    {
      "inputs": [],
      "name": "claimRegistry",
      "outputs": [
        {
          "internalType": "contract IClaimRegistry",
          "name": "",
          "type": "address"
        }
      ],
      "stateMutability": "view",
      "type": "function"
    },
    {
      "inputs": [
        {
          "internalType": "uint256",
          "name": "_claimId",
          "type": "uint256"
        }
      ],
      "name": "claimReward",
      "outputs": [],
      "stateMutability": "nonpayable",
      "type": "function"
    },
    {
      "inputs": [],
      "name": "deposit",
      "outputs": [],
      "stateMutability": "payable",
      "type": "function"
    },
    {
      "inputs": [
        {
          "internalType": "address",
          "name": "",
          "type": "address"
        }
      ],
      "name": "lockedBalances",
      "outputs": [
        {
          "internalType": "uint256",
          "name": "",
          "type": "uint256"
        }
      ],
      "stateMutability": "view",
      "type": "function"
    },
    {
      "inputs": [
        {
          "internalType": "uint256",
          "name": "",
          "type": "uint256"
        }
      ],
      "name": "markets",
      "outputs": [
        {
          "internalType": "bool",
          "name": "isOpen",
          "type": "bool"
        },
        {
          "internalType": "uint256",
          "name": "stakesFor",
          "type": "uint256"
        },
        {
          "internalType": "uint256",
          "name": "stakesAgainst",
          "type": "uint256"
        },
        {
          "internalType": "uint256",
          "name": "totalStakes",
          "type": "uint256"
        },
        {
          "internalType": "bool",
          "name": "isSettled",
          "type": "bool"
        }
      ],
      "stateMutability": "view",
      "type": "function"
    },
    {
      "inputs": [
        {
          "internalType": "uint256",
          "name": "_claimId",
          "type": "uint256"
        }
      ],
      "name": "openVoting",
      "outputs": [],
      "stateMutability": "nonpayable",
      "type": "function"
    },
    {
      "inputs": [],
      "name": "orchestrator",
      "outputs": [
        {
          "internalType": "address",
          "name": "",
          "type": "address"
        }
      ],
      "stateMutability": "view",
      "type": "function"
    },
    {
      "inputs": [],
      "name": "owner",
      "outputs": [
        {
          "internalType": "address",
          "name": "",
          "type": "address"
        }
      ],
      "stateMutability": "view",
      "type": "function"
    },
    {
      "inputs": [],
      "name": "reputation",
      "outputs": [
        {
          "internalType": "contract IReputation",
          "name": "",
          "type": "address"
        }
      ],
      "stateMutability": "view",
      "type": "function"
    },
    {
      "inputs": [
        {
          "internalType": "address",
          "name": "_orchestrator",
          "type": "address"
        }
      ],
      "name": "setOrchestrator",
      "outputs": [],
      "stateMutability": "nonpayable",
      "type": "function"
    },
    {
      "inputs": [
        {
          "internalType": "address",
          "name": "_reputation",
          "type": "address"
        }
      ],
      "name": "setReputation",
      "outputs": [],
      "stateMutability": "nonpayable",
      "type": "function"
    },
    {
      "inputs": [
        {
          "internalType": "uint256",
          "name": "_claimId",
          "type": "uint256"
        }
      ],
      "name": "settleClaim",
      "outputs": [],
      "stateMutability": "nonpayable",
      "type": "function"
    },
    {
      "inputs": [
        {
          "internalType": "uint256",
          "name": "_claimId",
          "type": "uint256"
        },
        {
          "internalType": "bool",
          "name": "_support",
          "type": "bool"
        },
        {
          "internalType": "uint256",
          "name": "_amount",
          "type": "uint256"
        }
      ],
      "name": "vote",
      "outputs": [],
      "stateMutability": "nonpayable",
      "type": "function"
    },
    {
      "inputs": [
        {
          "internalType": "uint256",
          "name": "_amount",
          "type": "uint256"
        }
      ],
      "name": "withdraw",
      "outputs": [],
      "stateMutability": "nonpayable",
      "type": "function"
    }
  ],
  "bytecode": "0x60806040523480156200001157600080fd5b50604051620029c3380380620029c383398181016040528101906200003791906200016a565b33600260006101000a81548173ffffffffffffffffffffffffffffffffffffffff021916908373ffffffffffffffffffffffffffffffffffffffff16021790555033600360006101000a81548173ffffffffffffffffffffffffffffffffffffffff021916908373ffffffffffffffffffffffffffffffffffffffff160217905550806000806101000a81548173ffffffffffffffffffffffffffffffffffffffff021916908373ffffffffffffffffffffffffffffffffffffffff160217905550506200019c565b600080fd5b600073ffffffffffffffffffffffffffffffffffffffff82169050919050565b6000620001328262000105565b9050919050565b620001448162000125565b81146200015057600080fd5b50565b600081519050620001648162000139565b92915050565b60006020828403121562000183576200018262000100565b5b6000620001938482850162000153565b91505092915050565b61281780620001ac6000396000f3fe6080604052600436106100e85760003560e01c8063b1283e771161008a578063d0e30db011610059578063d0e30db0146102f8578063d46a5d7e14610302578063e406f1d81461032b578063f7d0e04b14610354576100e8565b8063b1283e7714610238578063b74795d914610279578063c52164c6146102a4578063cd28ef0d146102cf576100e8565b80635f2ba6b2116100c65780635f2ba6b2146101905780638da5cb5b146101b9578063a878e156146101e4578063ae169a501461020f576100e8565b80630483a7f6146100ed57806327e235e31461012a5780632e1a7d4d14610167575b600080fd5b3480156100f957600080fd5b50610114600480360381019061010f9190611932565b61037d565b6040516101219190611978565b60405180910390f35b34801561013657600080fd5b50610151600480360381019061014c9190611932565b610395565b60405161015e9190611978565b60405180910390f35b34801561017357600080fd5b5061018e600480360381019061018991906119bf565b6103ad565b005b34801561019c57600080fd5b506101b760048036038101906101b291906119bf565b61064f565b005b3480156101c557600080fd5b506101ce61089a565b6040516101db91906119fb565b60405180910390f35b3480156101f057600080fd5b506101f96108c0565b6040516102069190611a75565b60405180910390f35b34801561021b57600080fd5b50610236600480360381019061023191906119bf565b6108e4565b005b34801561024457600080fd5b5061025f600480360381019061025a91906119bf565b610f4c565b604051610270959493929190611aab565b60405180910390f35b34801561028557600080fd5b5061028e610f9c565b60405161029b91906119fb565b60405180910390f35b3480156102b057600080fd5b506102b9610fc2565b6040516102c69190611b1f565b60405180910390f35b3480156102db57600080fd5b506102f660048036038101906102f19190611932565b610fe8565b005b6103006110bc565b005b34801561030e57600080fd5b5061032960048036038101906103249190611b66565b6111a5565b005b34801561033757600080fd5b50610352600480360381019061034d91906119bf565b6114e8565b005b34801561036057600080fd5b5061037b60048036038101906103769190611932565b6117ec565b005b60066020528060005260406000206000915090505481565b60056020528060005260406000206000915090505481565b80600560003373ffffffffffffffffffffffffffffffffffffffff1673ffffffffffffffffffffffffffffffffffffffff16815260200190815260200160002054101561042f576040517f08c379a000000000000000000000000000000000000000000000000000000000815260040161042690611c16565b60405180910390fd5b80600660003373ffffffffffffffffffffffffffffffffffffffff1673ffffffffffffffffffffffffffffffffffffffff16815260200190815260200160002054600560003373ffffffffffffffffffffffffffffffffffffffff1673ffffffffffffffffffffffffffffffffffffffff168152602001908152602001600020546104ba9190611c65565b10156104fb576040517f08c379a00000000000000000000000000000000000000000000000000000000081526004016104f290611ce5565b60405180910390fd5b80600560003373ffffffffffffffffffffffffffffffffffffffff1673ffffffffffffffffffffffffffffffffffffffff168152602001908152602001600020600082825461054a9190611c65565b9250508190555060003373ffffffffffffffffffffffffffffffffffffffff168260405161057790611d36565b60006040518083038185875af1925050503d80600081146105b4576040519150601f19603f3d011682016040523d82523d6000602084013e6105b9565b606091505b50509050806105fd576040517f08c379a00000000000000000000000000000000000000000000000000000000081526004016105f490611d97565b60405180910390fd5b3373ffffffffffffffffffffffffffffffffffffffff167f884edad9ce6fa2440d8a54cc123490eb96d2768479d49ff9c7366125a9424364836040516106439190611978565b60405180910390a25050565b600360009054906101000a900473ffffffffffffffffffffffffffffffffffffffff1673ffffffffffffffffffffffffffffffffffffffff163373ffffffffffffffffffffffffffffffffffffffff1614806106f85750600260009054906101000a900473ffffffffffffffffffffffffffffffffffffffff1673ffffffffffffffffffffffffffffffffffffffff163373ffffffffffffffffffffffffffffffffffffffff16145b610737576040517f08c379a000000000000000000000000000000000000000000000000000000000815260040161072e90611e03565b60405180910390fd5b6004600082815260200190815260200160002060000160009054906101000a900460ff161561079b576040517f08c379a000000000000000000000000000000000000000000000000000000000815260040161079290611e6f565b60405180910390fd5b60008054906101000a900473ffffffffffffffffffffffffffffffffffffffff1673ffffffffffffffffffffffffffffffffffffffff16635aef2447826040518263ffffffff1660e01b81526004016107f49190611978565b600060405180830381865afa158015610811573d6000803e3d6000fd5b505050506040513d6000823e3d601f19601f8201168201806040525081019061083a91906121b3565b5060016004600083815260200190815260200160002060000160006101000a81548160ff021916908315150217905550807f877332afc4cf5a3b3ce30a19161c7d2e263703799bec37d80f6bbbf4199e59c760405160405180910390a250565b600260009054906101000a900473ffffffffffffffffffffffffffffffffffffffff1681565b60008054906101000a900473ffffffffffffffffffffffffffffffffffffffff1681565b60006004600083815260200190815260200160002090508060060160009054906101000a900460ff1661094c576040517f08c379a000000000000000000000000000000000000000000000000000000000815260040161094390612248565b60405180910390fd5b60008060009054906101000a900473ffffffffffffffffffffffffffffffffffffffff1673ffffffffffffffffffffffffffffffffffffffff16635aef2447846040518263ffffffff1660e01b81526004016109a89190611978565b600060405180830381865afa1580156109c5573d6000803e3d6000fd5b505050506040513d6000823e3d601f19601f820116820180604052508101906109ee91906121b3565b905060008260040160003373ffffffffffffffffffffffffffffffffffffffff1673ffffffffffffffffffffffffffffffffffffffff16815260200190815260200160002054905060008360050160003373ffffffffffffffffffffffffffffffffffffffff1673ffffffffffffffffffffffffffffffffffffffff1681526020019081526020016000205490506000821180610a8b5750600081115b610aca576040517f08c379a0000000000000000000000000000000000000000000000000000000008152600401610ac1906122b4565b60405180910390fd5b6000806000808760040160003373ffffffffffffffffffffffffffffffffffffffff1673ffffffffffffffffffffffffffffffffffffffff1681526020019081526020016000208190555060008760050160003373ffffffffffffffffffffffffffffffffffffffff1673ffffffffffffffffffffffffffffffffffffffff168152602001908152602001600020819055508385610b6891906122d4565b600660003373ffffffffffffffffffffffffffffffffffffffff1673ffffffffffffffffffffffffffffffffffffffff1681526020019081526020016000206000828254610bb69190611c65565b92505081905550600380811115610bd057610bcf612308565b5b8660a001516003811115610be757610be6612308565b5b0315610e4d5760016003811115610c0157610c00612308565b5b8660a001516003811115610c1857610c17612308565b5b03610d1e576000851115610c9b57600a85610c339190612366565b925082600560003373ffffffffffffffffffffffffffffffffffffffff1673ffffffffffffffffffffffffffffffffffffffff1681526020019081526020016000206000828254610c8491906122d4565b92505081905550600a81610c9891906123a1565b90505b6000841115610d1957600284610cb19190612366565b915081600560003373ffffffffffffffffffffffffffffffffffffffff1673ffffffffffffffffffffffffffffffffffffffff1681526020019081526020016000206000828254610d029190611c65565b92505081905550600a81610d1691906123e5565b90505b610e4c565b60026003811115610d3257610d31612308565b5b8660a001516003811115610d4957610d48612308565b5b03610e4b576000841115610dcc57600a84610d649190612366565b925082600560003373ffffffffffffffffffffffffffffffffffffffff1673ffffffffffffffffffffffffffffffffffffffff1681526020019081526020016000206000828254610db591906122d4565b92505081905550600a81610dc991906123a1565b90505b6000851115610e4a57600285610de29190612366565b915081600560003373ffffffffffffffffffffffffffffffffffffffff1673ffffffffffffffffffffffffffffffffffffffff1681526020019081526020016000206000828254610e339190611c65565b92505081905550600a81610e4791906123e5565b90505b5b5b5b600073ffffffffffffffffffffffffffffffffffffffff16600160009054906101000a900473ffffffffffffffffffffffffffffffffffffffff1673ffffffffffffffffffffffffffffffffffffffff1614158015610ead575060008114155b15610f4257600160009054906101000a900473ffffffffffffffffffffffffffffffffffffffff1673ffffffffffffffffffffffffffffffffffffffff16636a08b51133836040518363ffffffff1660e01b8152600401610f0f929190612437565b600060405180830381600087803b158015610f2957600080fd5b505af1158015610f3d573d6000803e3d6000fd5b505050505b5050505050505050565b60046020528060005260406000206000915090508060000160009054906101000a900460ff16908060010154908060020154908060030154908060060160009054906101000a900460ff16905085565b600360009054906101000a900473ffffffffffffffffffffffffffffffffffffffff1681565b600160009054906101000a900473ffffffffffffffffffffffffffffffffffffffff1681565b600260009054906101000a900473ffffffffffffffffffffffffffffffffffffffff1673ffffffffffffffffffffffffffffffffffffffff163373ffffffffffffffffffffffffffffffffffffffff1614611078576040517f08c379a000000000000000000000000000000000000000000000000000000000815260040161106f906124ac565b60405180910390fd5b80600360006101000a81548173ffffffffffffffffffffffffffffffffffffffff021916908373ffffffffffffffffffffffffffffffffffffffff16021790555050565b600034116110ff576040517f08c379a00000000000000000000000000000000000000000000000000000000081526004016110f690612518565b60405180910390fd5b34600560003373ffffffffffffffffffffffffffffffffffffffff1673ffffffffffffffffffffffffffffffffffffffff168152602001908152602001600020600082825461114e91906122d4565b925050819055503373ffffffffffffffffffffffffffffffffffffffff167fe1fffcc4923d04b559f4d29a8bfc6cda04eb5b0d3c460751c2402c5c5cc9109c3460405161119b9190611978565b60405180910390a2565b6004600084815260200190815260200160002060000160009054906101000a900460ff16611208576040517f08c379a00000000000000000000000000000000000000000000000000000000081526004016111ff90612584565b60405180910390fd5b80600660003373ffffffffffffffffffffffffffffffffffffffff1673ffffffffffffffffffffffffffffffffffffffff16815260200190815260200160002054600560003373ffffffffffffffffffffffffffffffffffffffff1673ffffffffffffffffffffffffffffffffffffffff168152602001908152602001600020546112939190611c65565b10156112d4576040517f08c379a00000000000000000000000000000000000000000000000000000000081526004016112cb906125f0565b60405180910390fd5b60008111611317576040517f08c379a000000000000000000000000000000000000000000000000000000000815260040161130e90612518565b60405180910390fd5b80600660003373ffffffffffffffffffffffffffffffffffffffff1673ffffffffffffffffffffffffffffffffffffffff168152602001908152602001600020600082825461136691906122d4565b9250508190555060006004600085815260200190815260200160002090508181600301600082825461139891906122d4565b92505081905550821561141d57818160010160008282546113b991906122d4565b92505081905550818160040160003373ffffffffffffffffffffffffffffffffffffffff1673ffffffffffffffffffffffffffffffffffffffff168152602001908152602001600020600082825461141191906122d4565b92505081905550611491565b8181600201600082825461143191906122d4565b92505081905550818160050160003373ffffffffffffffffffffffffffffffffffffffff1673ffffffffffffffffffffffffffffffffffffffff168152602001908152602001600020600082825461148991906122d4565b925050819055505b3373ffffffffffffffffffffffffffffffffffffffff16847f7c2de587c00d75474a0c6c6fa96fd3b45dc974cd4e8a75f712bb84c950dce1b585856040516114da929190612610565b60405180910390a350505050565b600360009054906101000a900473ffffffffffffffffffffffffffffffffffffffff1673ffffffffffffffffffffffffffffffffffffffff163373ffffffffffffffffffffffffffffffffffffffff1614806115915750600260009054906101000a900473ffffffffffffffffffffffffffffffffffffffff1673ffffffffffffffffffffffffffffffffffffffff163373ffffffffffffffffffffffffffffffffffffffff16145b6115d0576040517f08c379a00000000000000000000000000000000000000000000000000000000081526004016115c790611e03565b60405180910390fd5b60006004600083815260200190815260200160002090508060000160009054906101000a900460ff16611638576040517f08c379a000000000000000000000000000000000000000000000000000000000815260040161162f90612685565b60405180910390fd5b8060060160009054906101000a900460ff161561168a576040517f08c379a0000000000000000000000000000000000000000000000000000000008152600401611681906126f1565b60405180910390fd5b60008060009054906101000a900473ffffffffffffffffffffffffffffffffffffffff1673ffffffffffffffffffffffffffffffffffffffff16635aef2447846040518263ffffffff1660e01b81526004016116e69190611978565b600060405180830381865afa158015611703573d6000803e3d6000fd5b505050506040513d6000823e3d601f19601f8201168201806040525081019061172c91906121b3565b90508060e00151611772576040517f08c379a00000000000000000000000000000000000000000000000000000000081526004016117699061275d565b60405180910390fd5b60008260000160006101000a81548160ff02191690831515021790555060018260060160006101000a81548160ff021916908315150217905550827fdc220418e5280dac901ad3dabe3f4f3d2a7b0d6fe30596d0d1258e742c8052c06000806040516117df9291906127b8565b60405180910390a2505050565b600260009054906101000a900473ffffffffffffffffffffffffffffffffffffffff1673ffffffffffffffffffffffffffffffffffffffff163373ffffffffffffffffffffffffffffffffffffffff161461187c576040517f08c379a0000000000000000000000000000000000000000000000000000000008152600401611873906124ac565b60405180910390fd5b80600160006101000a81548173ffffffffffffffffffffffffffffffffffffffff021916908373ffffffffffffffffffffffffffffffffffffffff16021790555050565b6000604051905090565b600080fd5b600080fd5b600073ffffffffffffffffffffffffffffffffffffffff82169050919050565b60006118ff826118d4565b9050919050565b61190f816118f4565b811461191a57600080fd5b50565b60008135905061192c81611906565b92915050565b600060208284031215611948576119476118ca565b5b60006119568482850161191d565b91505092915050565b6000819050919050565b6119728161195f565b82525050565b600060208201905061198d6000830184611969565b92915050565b61199c8161195f565b81146119a757600080fd5b50565b6000813590506119b981611993565b92915050565b6000602082840312156119d5576119d46118ca565b5b60006119e3848285016119aa565b91505092915050565b6119f5816118f4565b82525050565b6000602082019050611a1060008301846119ec565b92915050565b6000819050919050565b6000611a3b611a36611a31846118d4565b611a16565b6118d4565b9050919050565b6000611a4d82611a20565b9050919050565b6000611a5f82611a42565b9050919050565b611a6f81611a54565b82525050565b6000602082019050611a8a6000830184611a66565b92915050565b60008115159050919050565b611aa581611a90565b82525050565b600060a082019050611ac06000830188611a9c565b611acd6020830187611969565b611ada6040830186611969565b611ae76060830185611969565b611af46080830184611a9c565b9695505050505050565b6000611b0982611a42565b9050919050565b611b1981611afe565b82525050565b6000602082019050611b346000830184611b10565b92915050565b611b4381611a90565b8114611b4e57600080fd5b50565b600081359050611b6081611b3a565b92915050565b600080600060608486031215611b7f57611b7e6118ca565b5b6000611b8d868287016119aa565b9350506020611b9e86828701611b51565b9250506040611baf868287016119aa565b9150509250925092565b600082825260208201905092915050565b7f496e73756666696369656e742062616c616e6365000000000000000000000000600082015250565b6000611c00601483611bb9565b9150611c0b82611bca565b602082019050919050565b60006020820190508181036000830152611c2f81611bf3565b9050919050565b7f4e487b7100000000000000000000000000000000000000000000000000000000600052601160045260246000fd5b6000611c708261195f565b9150611c7b8361195f565b9250828203905081811115611c9357611c92611c36565b5b92915050565b7f46756e6473206c6f636b65640000000000000000000000000000000000000000600082015250565b6000611ccf600c83611bb9565b9150611cda82611c99565b602082019050919050565b60006020820190508181036000830152611cfe81611cc2565b9050919050565b600081905092915050565b50565b6000611d20600083611d05565b9150611d2b82611d10565b600082019050919050565b6000611d4182611d13565b9150819050919050565b7f5472616e73666572206661696c65640000000000000000000000000000000000600082015250565b6000611d81600f83611bb9565b9150611d8c82611d4b565b602082019050919050565b60006020820190508181036000830152611db081611d74565b9050919050565b7f4f6e6c79206f7263686573747261746f72206f72206f776e6572000000000000600082015250565b6000611ded601a83611bb9565b9150611df882611db7565b602082019050919050565b60006020820190508181036000830152611e1c81611de0565b9050919050565b7f416c7265616479206f70656e0000000000000000000000000000000000000000600082015250565b6000611e59600c83611bb9565b9150611e6482611e23565b602082019050919050565b60006020820190508181036000830152611e8881611e4c565b9050919050565b600080fd5b6000601f19601f8301169050919050565b7f4e487b7100000000000000000000000000000000000000000000000000000000600052604160045260246000fd5b611edd82611e94565b810181811067ffffffffffffffff82111715611efc57611efb611ea5565b5b80604052505050565b6000611f0f6118c0565b9050611f1b8282611ed4565b919050565b600080fd5b600081519050611f3481611993565b92915050565b600080fd5b600080fd5b600067ffffffffffffffff821115611f5f57611f5e611ea5565b5b611f6882611e94565b9050602081019050919050565b60005b83811015611f93578082015181840152602081019050611f78565b60008484015250505050565b6000611fb2611fad84611f44565b611f05565b905082815260208101848484011115611fce57611fcd611f3f565b5b611fd9848285611f75565b509392505050565b600082601f830112611ff657611ff5611f3a565b5b8151612006848260208601611f9f565b91505092915050565b6000819050919050565b6120228161200f565b811461202d57600080fd5b50565b60008151905061203f81612019565b92915050565b60008151905061205481611906565b92915050565b6004811061206757600080fd5b50565b6000815190506120798161205a565b92915050565b600060ff82169050919050565b6120958161207f565b81146120a057600080fd5b50565b6000815190506120b28161208c565b92915050565b6000815190506120c781611b3a565b92915050565b600061010082840312156120e4576120e3611e8f565b5b6120ef610100611f05565b905060006120ff84828501611f25565b600083015250602082015167ffffffffffffffff81111561212357612122611f20565b5b61212f84828501611fe1565b602083015250604061214384828501612030565b604083015250606061215784828501612045565b606083015250608061216b84828501611f25565b60808301525060a061217f8482850161206a565b60a08301525060c0612193848285016120a3565b60c08301525060e06121a7848285016120b8565b60e08301525092915050565b6000602082840312156121c9576121c86118ca565b5b600082015167ffffffffffffffff8111156121e7576121e66118cf565b5b6121f3848285016120cd565b91505092915050565b7f4e6f7420736574746c6564000000000000000000000000000000000000000000600082015250565b6000612232600b83611bb9565b915061223d826121fc565b602082019050919050565b6000602082019050818103600083015261226181612225565b9050919050565b7f4e6f207374616b65000000000000000000000000000000000000000000000000600082015250565b600061229e600883611bb9565b91506122a982612268565b602082019050919050565b600060208201905081810360008301526122cd81612291565b9050919050565b60006122df8261195f565b91506122ea8361195f565b925082820190508082111561230257612301611c36565b5b92915050565b7f4e487b7100000000000000000000000000000000000000000000000000000000600052602160045260246000fd5b7f4e487b7100000000000000000000000000000000000000000000000000000000600052601260045260246000fd5b60006123718261195f565b915061237c8361195f565b92508261238c5761238b612337565b5b828204905092915050565b6000819050919050565b60006123ac82612397565b91506123b783612397565b9250828201905082811215600083121683821260008412151617156123df576123de611c36565b5b92915050565b60006123f082612397565b91506123fb83612397565b925082820390508181126000841216828213600085121516171561242257612421611c36565b5b92915050565b61243181612397565b82525050565b600060408201905061244c60008301856119ec565b6124596020830184612428565b9392505050565b7f4f6e6c79206f776e657200000000000000000000000000000000000000000000600082015250565b6000612496600a83611bb9565b91506124a182612460565b602082019050919050565b600060208201905081810360008301526124c581612489565b9050919050565b7f416d6f756e74203e203000000000000000000000000000000000000000000000600082015250565b6000612502600a83611bb9565b915061250d826124cc565b602082019050919050565b60006020820190508181036000830152612531816124f5565b9050919050565b7f566f74696e67206e6f74206f70656e0000000000000000000000000000000000600082015250565b600061256e600f83611bb9565b915061257982612538565b602082019050919050565b6000602082019050818103600083015261259d81612561565b9050919050565b7f496e73756666696369656e7420617661696c61626c652062616c616e63650000600082015250565b60006125da601e83611bb9565b91506125e5826125a4565b602082019050919050565b60006020820190508181036000830152612609816125cd565b9050919050565b60006040820190506126256000830185611a9c565b6126326020830184611969565b9392505050565b7f4d61726b6574206e6f74206f70656e0000000000000000000000000000000000600082015250565b600061266f600f83611bb9565b915061267a82612639565b602082019050919050565b6000602082019050818103600083015261269e81612662565b9050919050565b7f416c726561647920736574746c65640000000000000000000000000000000000600082015250565b60006126db600f83611bb9565b91506126e6826126a5565b602082019050919050565b6000602082019050818103600083015261270a816126ce565b9050919050565b7f436c61696d206e6f74207265736f6c76656420696e2072656769737472790000600082015250565b6000612747601e83611bb9565b915061275282612711565b602082019050919050565b600060208201905081810360008301526127768161273a565b9050919050565b6000819050919050565b60006127a261279d6127988461277d565b611a16565b61195f565b9050919050565b6127b281612787565b82525050565b60006040820190506127cd60008301856127a9565b6127da60208301846127a9565b939250505056fea26469706673582212208e85913fb6561476378a31060adf81ea7ccb704027851da61b418b905985aac264736f6c63430008140033",
  "linkReferences": {},
  "deployedLinkReferences": {}
}