{
  "_format": "hh-sol-artifact-1",
  "contractName": "VerifierBadge",
  "sourceName": "contracts/VerifierBadge.sol",
  "abi": [
    {
      "inputs": [],
      "stateMutability": "nonpayable",
      "type": "constructor"
    },
    {
      "inputs": [
        {
          "internalType": "address",
          "name": "sender",
          "type": "address"
        },
        {
          "internalType": "uint256",
          "name": "tokenId",
          "type": "uint256"
        },
        {
          "internalType": "address",
          "name": "owner",
          "type": "address"
        }
      ],
      "name": "ERC721IncorrectOwner",
      "type": "error"
    },
    {
      "inputs": [
        {
          "internalType": "address",
          "name": "operator",
          "type": "address"
        },
        {
          "internalType": "uint256",
          "name": "tokenId",
          "type": "uint256"
        }
      ],
      "name": "ERC721InsufficientApproval",
      "type": "error"
    },
    {
      "inputs": [
        {
          "internalType": "address",
          "name": "approver",
          "type": "address"
        }
      ],
      "name": "ERC721InvalidApprover",
      "type": "error"
    },
    {
      "inputs": [
        {
          "internalType": "address",
          "name": "operator",
          "type": "address"
        }
      ],
      "name": "ERC721InvalidOperator",
      "type": "error"
    },
    {
      "inputs": [
        {
          "internalType": "address",
          "name": "owner",
          "type": "address"
        }
      ],
      "name": "ERC721InvalidOwner",
      "type": "error"
    },
    {
      "inputs": [
        {
          "internalType": "address",
          "name": "receiver",
          "type": "address"
        }
      ],
      "name": "ERC721InvalidReceiver",
      "type": "error"
    },
    {
      "inputs": [
        {
          "internalType": "address",
          "name": "sender",
          "type": "address"
        }
      ],
      "name": "ERC721InvalidSender",
      "type": "error"
    },
    {
      "inputs": [
        {
          "internalType": "uint256",
          "name": "tokenId",
          "type": "uint256"
        }
      ],
      "name": "ERC721NonexistentToken",
      "type": "error"
    },
    {
      "inputs": [
        {
          "internalType": "address",
          "name": "owner",
          "type": "address"
        }
      ],
      "name": "OwnableInvalidOwner",
      "type": "error"
    },
    {
      "inputs": [
        {
          "internalType": "address",
          "name": "account",
          "type": "address"
        }
      ],
      "name": "OwnableUnauthorizedAccount",
      "type": "error"
    },
    {
      "anonymous": false,
      "inputs": [
        {
          "indexed": true,
          "internalType": "address",
          "name": "owner",
          "type": "address"
        },
        {
          "indexed": true,
          "internalType": "address",
          "name": "approved",
          "type": "address"
        },
        {
          "indexed": true,
          "internalType": "uint256",
          "name": "tokenId",
          "type": "uint256"
        }
      ],
      "name": "Approval",
      "type": "event"
    },
    {
      "anonymous": false,
      "inputs": [
        {
          "indexed": true,
          "internalType": "address",
          "name": "owner",
          "type": "address"
        },
        {
          "indexed": true,
          "internalType": "address",
          "name": "operator",
          "type": "address"
        },
        {
          "indexed": false,
          "internalType": "bool",
          "name": "approved",
          "type": "bool"
        }
      ],
      "name": "ApprovalForAll",
      "type": "event"
    },
    {
      "anonymous": false,
      "inputs": [
        {
          "indexed": true,
          "internalType": "address",
          "name": "previousOwner",
          "type": "address"
        },
        {
          "indexed": true,
          "internalType": "address",
          "name": "newOwner",
          "type": "address"
        }
      ],
      "name": "OwnershipTransferred",
      "type": "event"
    },
    {
      "anonymous": false,
      "inputs": [
        {
          "indexed": true,
          "internalType": "address",
          "name": "from",
          "type": "address"
        },
        {
          "indexed": true,
          "internalType": "address",
          "name": "to",
          "type": "address"
        },
        {
          "indexed": true,
          "internalType": "uint256",
          "name": "tokenId",
          "type": "uint256"
        }
      ],
      "name": "Transfer",
      "type": "event"
    },
    {
      "inputs": [
        {
          "internalType": "address",
          "name": "to",
          "type": "address"
        },
        {
          "internalType": "uint256",
          "name": "tokenId",
          "type": "uint256"
        }
      ],
      "name": "approve",
      "outputs": [],
      "stateMutability": "nonpayable",
      "type": "function"
    },
    {
      "inputs": [
        {
          "internalType": "uint256",
          "name": "",
          "type": "uint256"
        }
      ],
      "name": "badgeMetadata",
      "outputs": [
        {
          "internalType": "uint256",
          "name": "seasonId",
          "type": "uint256"
        },
        {
          "internalType": "uint256",
          "name": "rank",
          "type": "uint256"
        }
      ],
      "stateMutability": "view",
      "type": "function"
    },
    {
      "inputs": [
        {
          "internalType": "address",
          "name": "owner",
          "type": "address"
        }
      ],
      "name": "balanceOf",
      "outputs": [
        {
          "internalType": "uint256",
          "name": "",
          "type": "uint256"
        }
      ],
      "stateMutability": "view",
      "type": "function"
    },
    {
      "inputs": [
        {
          "internalType": "uint256",
          "name": "tokenId",
          "type": "uint256"
        }
      ],
      "name": "getApproved",
      "outputs": [
        {
          "internalType": "address",
          "name": "",
          "type": "address"
        }
      ],
      "stateMutability": "view",
      "type": "function"
    },
    {
      "inputs": [
        {
          "internalType": "address",
          "name": "owner",
          "type": "address"
        },
        {
          "internalType": "address",
          "name": "operator",
          "type": "address"
        }
      ],
      "name": "isApprovedForAll",
      "outputs": [
        {
          "internalType": "bool",
          "name": "",
          "type": "bool"
        }
      ],
      "stateMutability": "view",
      "type": "function"
    },
    {
      "inputs": [
        {
          "internalType": "address",
          "name": "_to",
          "type": "address"
        },
        {
          "internalType": "uint256",
          "name": "_seasonId",
          "type": "uint256"
        },
        {
          "internalType": "uint256",
          "name": "_rank",
          "type": "uint256"
        }
      ],
      "name": "mintBadge",
      "outputs": [],
      "stateMutability": "nonpayable",
      "type": "function"
    },
    {
      "inputs": [],
      "name": "name",
      "outputs": [
        {
          "internalType": "string",
          "name": "",
          "type": "string"
        }
      ],
      "stateMutability": "view",
      "type": "function"
    },
    {
      "inputs": [],
      "name": "nextTokenId",
      "outputs": [
        {
          "internalType": "uint256",
          "name": "",
          "type": "uint256"
        }
      ],
      "stateMutability": "view",
      "type": "function"
    },
    {
      "inputs": [],
      "name": "orchestrator",
      "outputs": [
        {
          "internalType": "address",
          "name": "",
          "type": "address"
        }
      ],
      "stateMutability": "view",
      "type": "function"
    },
    {
      "inputs": [],
      "name": "owner",
      "outputs": [
        {
          "internalType": "address",
          "name": "",
          "type": "address"
        }
      ],
      "stateMutability": "view",
      "type": "function"
    },
    {
      "inputs": [
        {
          "internalType": "uint256",
          "name": "tokenId",
          "type": "uint256"
        }
      ],
      "name": "ownerOf",
      "outputs": [
        {
          "internalType": "address",
          "name": "",
          "type": "address"
        }
      ],
      "stateMutability": "view",
      "type": "function"
    },
    {
      "inputs": [],
      "name": "renounceOwnership",
      "outputs": [],
      "stateMutability": "nonpayable",
      "type": "function"
    },
    {
      "inputs": [
        {
          "internalType": "address",
          "name": "from",
          "type": "address"
        },
        {
          "internalType": "address",
          "name": "to",
          "type": "address"
        },
        {
          "internalType": "uint256",
          "name": "tokenId",
          "type": "uint256"
        }
      ],
      "name": "safeTransferFrom",
      "outputs": [],
      "stateMutability": "nonpayable",
      "type": "function"
    },
    {
      "inputs": [
        {
          "internalType": "address",
          "name": "from",
          "type": "address"
        },
        {
          "internalType": "address",
          "name": "to",
          "type": "address"
        },
        {
          "internalType": "uint256",
          "name": "tokenId",
          "type": "uint256"
        },
        {
          "internalType": "bytes",
          "name": "data",
          "type": "bytes"
        }
      ],
      "name": "safeTransferFrom",
      "outputs": [],
      "stateMutability": "nonpayable",
      "type": "function"
    },
    {
      "inputs": [
        {
          "internalType": "address",
          "name": "operator",
          "type": "address"
        },
        {
          "internalType": "bool",
          "name": "approved",
          "type": "bool"
        }
      ],
      "name": "setApprovalForAll",
      "outputs": [],
      "stateMutability": "nonpayable",
      "type": "function"
    },
    {
      "inputs": [
        {
          "internalType": "address",
          "name": "_orchestrator",
          "type": "address"
        }
      ],
      "name": "setOrchestrator",
      "outputs": [],
      "stateMutability": "nonpayable",
      "type": "function"
    },
    {
      "inputs": [
        {
          "internalType": "bytes4",
          "name": "interfaceId",
          "type": "bytes4"
        }
      ],
      "name": "supportsInterface",
      "outputs": [
        {
          "internalType": "bool",
          "name": "",
          "type": "bool"
        }
      ],
      "stateMutability": "view",
      "type": "function"
    },
    {
      "inputs": [],
      "name": "symbol",
      "outputs": [
        {
          "internalType": "string",
          "name": "",
          "type": "string"
        }
      ],
      "stateMutability": "view",
      "type": "function"
    },
    {
      "inputs": [
        {
          "internalType": "uint256",
          "name": "tokenId",
          "type": "uint256"
        }
      ],
      "name": "tokenURI",
      "outputs": [
        {
          "internalType": "string",
          "name": "",
          "type": "string"
        }
      ],
      "stateMutability": "view",
      "type": "function"
    },
    {
      "inputs": [
        {
          "internalType": "address",
          "name": "from",
          "type": "address"
        },
        {
          "internalType": "address",
          "name": "to",
          "type": "address"
        },
        {
          "internalType": "uint256",
          "name": "tokenId",
          "type": "uint256"
        }
      ],
      "name": "transferFrom",
      "outputs": [],
      "stateMutability": "nonpayable",
      "type": "function"
    },
    {
      "inputs": [
        {
          "internalType": "address",
          "name": "newOwner",
          "type": "address"
        }
      ],
      "name": "transferOwnership",
      "outputs": [],
      "stateMutability": "nonpayable",
      "type": "function"
    }
  ],
  "bytecode": "0x60806040523480156200001157600080fd5b50336040518060400160405280600f81526020017f56657269436861696e20426164676500000000000000000000000000000000008152506040518060400160405280600381526020017f56434200000000000000000000000000000000000000000000000000000000008152508160009081620000909190620004b3565b508060019081620000a29190620004b3565b505050600073ffffffffffffffffffffffffffffffffffffffff168173ffffffffffffffffffffffffffffffffffffffff16036200011a5760006040517f1e4fbdf7000000000000000000000000000000000000000000000000000000008152600401620001119190620005df565b60405180910390fd5b6200012b816200017360201b60201c565b5033600860006101000a81548173ffffffffffffffffffffffffffffffffffffffff021916908373ffffffffffffffffffffffffffffffffffffffff160217905550620005fc565b6000600660009054906101000a900473ffffffffffffffffffffffffffffffffffffffff16905081600660006101000a81548173ffffffffffffffffffffffffffffffffffffffff021916908373ffffffffffffffffffffffffffffffffffffffff1602179055508173ffffffffffffffffffffffffffffffffffffffff168173ffffffffffffffffffffffffffffffffffffffff167f8be0079c531659141344cd1fd0a4f28419497f9722a3daafe3b4186f6b6457e060405160405180910390a35050565b600081519050919050565b7f4e487b7100000000000000000000000000000000000000000000000000000000600052604160045260246000fd5b7f4e487b7100000000000000000000000000000000000000000000000000000000600052602260045260246000fd5b60006002820490506001821680620002bb57607f821691505b602082108103620002d157620002d062000273565b5b50919050565b60008190508160005260206000209050919050565b60006020601f8301049050919050565b600082821b905092915050565b6000600883026200033b7fffffffffffffffffffffffffffffffffffffffffffffffffffffffffffffffff82620002fc565b620003478683620002fc565b95508019841693508086168417925050509392505050565b6000819050919050565b6000819050919050565b6000620003946200038e62000388846200035f565b62000369565b6200035f565b9050919050565b6000819050919050565b620003b08362000373565b620003c8620003bf826200039b565b84845462000309565b825550505050565b600090565b620003df620003d0565b620003ec818484620003a5565b505050565b5b81811015620004145762000408600082620003d5565b600181019050620003f2565b5050565b601f82111562000463576200042d81620002d7565b6200043884620002ec565b8101602085101562000448578190505b620004606200045785620002ec565b830182620003f1565b50505b505050565b600082821c905092915050565b6000620004886000198460080262000468565b1980831691505092915050565b6000620004a3838362000475565b9150826002028217905092915050565b620004be8262000239565b67ffffffffffffffff811115620004da57620004d962000244565b5b620004e68254620002a2565b620004f382828562000418565b600060209050601f8311600181146200052b576000841562000516578287015190505b62000522858262000495565b86555062000592565b601f1984166200053b86620002d7565b60005b8281101562000565578489015182556001820191506020850194506020810190506200053e565b8683101562000585578489015162000581601f89168262000475565b8355505b6001600288020188555050505b505050505050565b600073ffffffffffffffffffffffffffffffffffffffff82169050919050565b6000620005c7826200059a565b9050919050565b620005d981620005ba565b82525050565b6000602082019050620005f66000830184620005ce565b92915050565b6123d1806200060c6000396000f3fe608060405234801561001057600080fd5b50600436106101375760003560e01c806375794a3c116100b8578063b88d4fde1161007c578063b88d4fde14610328578063c87b56dd14610344578063cd28ef0d14610374578063e4de973d14610390578063e985e9c5146103c1578063f2fde38b146103f157610137565b806375794a3c146102945780638da5cb5b146102b257806395d89b41146102d0578063a22cb465146102ee578063b74795d91461030a57610137565b806323b872dd116100ff57806323b872dd146101f257806342842e0e1461020e5780636352211e1461022a57806370a082311461025a578063715018a61461028a57610137565b806301ffc9a71461013c57806306fdde031461016c57806307a430901461018a578063081812fc146101a6578063095ea7b3146101d6575b600080fd5b61015660048036038101906101519190611a87565b61040d565b6040516101639190611acf565b60405180910390f35b6101746104ef565b6040516101819190611b7a565b60405180910390f35b6101a4600480360381019061019f9190611c30565b610581565b005b6101c060048036038101906101bb9190611c83565b6106b8565b6040516101cd9190611cbf565b60405180910390f35b6101f060048036038101906101eb9190611cda565b6106d4565b005b61020c60048036038101906102079190611d1a565b6106ea565b005b61022860048036038101906102239190611d1a565b610725565b005b610244600480360381019061023f9190611c83565b610745565b6040516102519190611cbf565b60405180910390f35b610274600480360381019061026f9190611d6d565b610757565b6040516102819190611da9565b60405180910390f35b610292610811565b005b61029c610825565b6040516102a99190611da9565b60405180910390f35b6102ba61082b565b6040516102c79190611cbf565b60405180910390f35b6102d8610855565b6040516102e59190611b7a565b60405180910390f35b61030860048036038101906103039190611df0565b6108e7565b005b6103126108fd565b60405161031f9190611cbf565b60405180910390f35b610342600480360381019061033d9190611f65565b610923565b005b61035e60048036038101906103599190611c83565b61095e565b60405161036b9190611b7a565b60405180910390f35b61038e60048036038101906103899190611d6d565b6109c7565b005b6103aa60048036038101906103a59190611c83565b610a13565b6040516103b8929190611fe8565b60405180910390f35b6103db60048036038101906103d69190612011565b610a37565b6040516103e89190611acf565b60405180910390f35b61040b60048036038101906104069190611d6d565b610acb565b005b60007f80ac58cd000000000000000000000000000000000000000000000000000000007bffffffffffffffffffffffffffffffffffffffffffffffffffffffff1916827bffffffffffffffffffffffffffffffffffffffffffffffffffffffff191614806104d857507f5b5e139f000000000000000000000000000000000000000000000000000000007bffffffffffffffffffffffffffffffffffffffffffffffffffffffff1916827bffffffffffffffffffffffffffffffffffffffffffffffffffffffff1916145b806104e857506104e782610b51565b5b9050919050565b6060600080546104fe90612080565b80601f016020809104026020016040519081016040528092919081815260200182805461052a90612080565b80156105775780601f1061054c57610100808354040283529160200191610577565b820191906000526020600020905b81548152906001019060200180831161055a57829003601f168201915b5050505050905090565b600860009054906101000a900473ffffffffffffffffffffffffffffffffffffffff1673ffffffffffffffffffffffffffffffffffffffff163373ffffffffffffffffffffffffffffffffffffffff16148061060f57506105e061082b565b73ffffffffffffffffffffffffffffffffffffffff163373ffffffffffffffffffffffffffffffffffffffff16145b61064e576040517f08c379a0000000000000000000000000000000000000000000000000000000008152600401610645906120fd565b60405180910390fd5b6000600760008154809291906106639061214c565b9190505590506106738482610bbb565b60405180604001604052808481526020018381525060096000838152602001908152602001600020600082015181600001556020820151816001015590505050505050565b60006106c382610bd9565b506106cd82610c61565b9050919050565b6106e682826106e1610c9e565b610ca6565b5050565b6040517f08c379a000000000000000000000000000000000000000000000000000000000815260040161071c906121e0565b60405180910390fd5b61074083838360405180602001604052806000815250610923565b505050565b600061075082610bd9565b9050919050565b60008073ffffffffffffffffffffffffffffffffffffffff168273ffffffffffffffffffffffffffffffffffffffff16036107ca5760006040517f89c62b640000000000000000000000000000000000000000000000000000000081526004016107c19190611cbf565b60405180910390fd5b600360008373ffffffffffffffffffffffffffffffffffffffff1673ffffffffffffffffffffffffffffffffffffffff168152602001908152602001600020549050919050565b610819610cb8565b6108236000610d3f565b565b60075481565b6000600660009054906101000a900473ffffffffffffffffffffffffffffffffffffffff16905090565b60606001805461086490612080565b80601f016020809104026020016040519081016040528092919081815260200182805461089090612080565b80156108dd5780601f106108b2576101008083540402835291602001916108dd565b820191906000526020600020905b8154815290600101906020018083116108c057829003601f168201915b5050505050905090565b6108f96108f2610c9e565b8383610e05565b5050565b600860009054906101000a900473ffffffffffffffffffffffffffffffffffffffff1681565b6040517f08c379a0000000000000000000000000000000000000000000000000000000008152600401610955906121e0565b60405180910390fd5b606061096982610bd9565b506000610974610f74565b9050600081511161099457604051806020016040528060008152506109bf565b8061099e84610f8b565b6040516020016109af92919061223c565b6040516020818303038152906040525b915050919050565b6109cf610cb8565b80600860006101000a81548173ffffffffffffffffffffffffffffffffffffffff021916908373ffffffffffffffffffffffffffffffffffffffff16021790555050565b60096020528060005260406000206000915090508060000154908060010154905082565b6000600560008473ffffffffffffffffffffffffffffffffffffffff1673ffffffffffffffffffffffffffffffffffffffff16815260200190815260200160002060008373ffffffffffffffffffffffffffffffffffffffff1673ffffffffffffffffffffffffffffffffffffffff16815260200190815260200160002060009054906101000a900460ff16905092915050565b610ad3610cb8565b600073ffffffffffffffffffffffffffffffffffffffff168173ffffffffffffffffffffffffffffffffffffffff1603610b455760006040517f1e4fbdf7000000000000000000000000000000000000000000000000000000008152600401610b3c9190611cbf565b60405180910390fd5b610b4e81610d3f565b50565b60007f01ffc9a7000000000000000000000000000000000000000000000000000000007bffffffffffffffffffffffffffffffffffffffffffffffffffffffff1916827bffffffffffffffffffffffffffffffffffffffffffffffffffffffff1916149050919050565b610bd5828260405180602001604052806000815250611059565b5050565b600080610be58361107d565b9050600073ffffffffffffffffffffffffffffffffffffffff168173ffffffffffffffffffffffffffffffffffffffff1603610c5857826040517f7e273289000000000000000000000000000000000000000000000000000000008152600401610c4f9190611da9565b60405180910390fd5b80915050919050565b60006004600083815260200190815260200160002060009054906101000a900473ffffffffffffffffffffffffffffffffffffffff169050919050565b600033905090565b610cb383838360016110ba565b505050565b610cc0610c9e565b73ffffffffffffffffffffffffffffffffffffffff16610cde61082b565b73ffffffffffffffffffffffffffffffffffffffff1614610d3d57610d01610c9e565b6040517f118cdaa7000000000000000000000000000000000000000000000000000000008152600401610d349190611cbf565b60405180910390fd5b565b6000600660009054906101000a900473ffffffffffffffffffffffffffffffffffffffff16905081600660006101000a81548173ffffffffffffffffffffffffffffffffffffffff021916908373ffffffffffffffffffffffffffffffffffffffff1602179055508173ffffffffffffffffffffffffffffffffffffffff168173ffffffffffffffffffffffffffffffffffffffff167f8be0079c531659141344cd1fd0a4f28419497f9722a3daafe3b4186f6b6457e060405160405180910390a35050565b600073ffffffffffffffffffffffffffffffffffffffff168273ffffffffffffffffffffffffffffffffffffffff1603610e7657816040517f5b08ba18000000000000000000000000000000000000000000000000000000008152600401610e6d9190611cbf565b60405180910390fd5b80600560008573ffffffffffffffffffffffffffffffffffffffff1673ffffffffffffffffffffffffffffffffffffffff16815260200190815260200160002060008473ffffffffffffffffffffffffffffffffffffffff1673ffffffffffffffffffffffffffffffffffffffff16815260200190815260200160002060006101000a81548160ff0219169083151502179055508173ffffffffffffffffffffffffffffffffffffffff168373ffffffffffffffffffffffffffffffffffffffff167f17307eab39ab6107e8899845ad3d59bd9653f200f220920489ca2b5937696c3183604051610f679190611acf565b60405180910390a3505050565b606060405180602001604052806000815250905090565b606060006001610f9a8461127f565b01905060008167ffffffffffffffff811115610fb957610fb8611e3a565b5b6040519080825280601f01601f191660200182016040528015610feb5781602001600182028036833780820191505090505b509050600082602083010190505b60011561104e578080600190039150507f3031323334353637383961626364656600000000000000000000000000000000600a86061a8153600a858161104257611041612260565b5b04945060008503610ff9575b819350505050919050565b61106383836113d2565b61107861106e610c9e565b60008585856114cb565b505050565b60006002600083815260200190815260200160002060009054906101000a900473ffffffffffffffffffffffffffffffffffffffff169050919050565b80806110f35750600073ffffffffffffffffffffffffffffffffffffffff168273ffffffffffffffffffffffffffffffffffffffff1614155b1561122757600061110384610bd9565b9050600073ffffffffffffffffffffffffffffffffffffffff168373ffffffffffffffffffffffffffffffffffffffff161415801561116e57508273ffffffffffffffffffffffffffffffffffffffff168173ffffffffffffffffffffffffffffffffffffffff1614155b8015611181575061117f8184610a37565b155b156111c357826040517fa9fbf51f0000000000000000000000000000000000000000000000000000000081526004016111ba9190611cbf565b60405180910390fd5b811561122557838573ffffffffffffffffffffffffffffffffffffffff168273ffffffffffffffffffffffffffffffffffffffff167f8c5be1e5ebec7d5bd14f71427d1e84f3dd0314c0f7b2291e5b200ac8c7c3b92560405160405180910390a45b505b836004600085815260200190815260200160002060006101000a81548173ffffffffffffffffffffffffffffffffffffffff021916908373ffffffffffffffffffffffffffffffffffffffff16021790555050505050565b600080600090507a184f03e93ff9f4daa797ed6e38ed64bf6a1f01000000000000000083106112dd577a184f03e93ff9f4daa797ed6e38ed64bf6a1f01000000000000000083816112d3576112d2612260565b5b0492506040810190505b6d04ee2d6d415b85acef8100000000831061131a576d04ee2d6d415b85acef810000000083816113105761130f612260565b5b0492506020810190505b662386f26fc10000831061134957662386f26fc10000838161133f5761133e612260565b5b0492506010810190505b6305f5e1008310611372576305f5e100838161136857611367612260565b5b0492506008810190505b612710831061139757612710838161138d5761138c612260565b5b0492506004810190505b606483106113ba57606483816113b0576113af612260565b5b0492506002810190505b600a83106113c9576001810190505b80915050919050565b600073ffffffffffffffffffffffffffffffffffffffff168273ffffffffffffffffffffffffffffffffffffffff16036114445760006040517f64a0ae9200000000000000000000000000000000000000000000000000000000815260040161143b9190611cbf565b60405180910390fd5b60006114528383600061167c565b9050600073ffffffffffffffffffffffffffffffffffffffff168173ffffffffffffffffffffffffffffffffffffffff16146114c65760006040517f73c6ac6e0000000000000000000000000000000000000000000000000000000081526004016114bd9190611cbf565b60405180910390fd5b505050565b60008373ffffffffffffffffffffffffffffffffffffffff163b1115611675578273ffffffffffffffffffffffffffffffffffffffff1663150b7a02868685856040518563ffffffff1660e01b815260040161152a94939291906122e4565b6020604051808303816000875af192505050801561156657506040513d601f19601f820116820180604052508101906115639190612345565b60015b6115ea573d8060008114611596576040519150601f19603f3d011682016040523d82523d6000602084013e61159b565b606091505b5060008151036115e257836040517f64a0ae920000000000000000000000000000000000000000000000000000000081526004016115d99190611cbf565b60405180910390fd5b805160208201fd5b63150b7a0260e01b7bffffffffffffffffffffffffffffffffffffffffffffffffffffffff1916817bffffffffffffffffffffffffffffffffffffffffffffffffffffffff19161461167357836040517f64a0ae9200000000000000000000000000000000000000000000000000000000815260040161166a9190611cbf565b60405180910390fd5b505b5050505050565b6000806116888461107d565b9050600073ffffffffffffffffffffffffffffffffffffffff168373ffffffffffffffffffffffffffffffffffffffff16146116ca576116c9818486611896565b5b600073ffffffffffffffffffffffffffffffffffffffff168173ffffffffffffffffffffffffffffffffffffffff161461175b5761170c6000856000806110ba565b6001600360008373ffffffffffffffffffffffffffffffffffffffff1673ffffffffffffffffffffffffffffffffffffffff168152602001908152602001600020600082825403925050819055505b600073ffffffffffffffffffffffffffffffffffffffff168573ffffffffffffffffffffffffffffffffffffffff16146117de576001600360008773ffffffffffffffffffffffffffffffffffffffff1673ffffffffffffffffffffffffffffffffffffffff168152602001908152602001600020600082825401925050819055505b846002600086815260200190815260200160002060006101000a81548173ffffffffffffffffffffffffffffffffffffffff021916908373ffffffffffffffffffffffffffffffffffffffff160217905550838573ffffffffffffffffffffffffffffffffffffffff168273ffffffffffffffffffffffffffffffffffffffff167fddf252ad1be2c89b69c2b068fc378daa952ba7f163c4a11628f55a4df523b3ef60405160405180910390a4809150509392505050565b6118a183838361195a565b61195557600073ffffffffffffffffffffffffffffffffffffffff168373ffffffffffffffffffffffffffffffffffffffff160361191657806040517f7e27328900000000000000000000000000000000000000000000000000000000815260040161190d9190611da9565b60405180910390fd5b81816040517f177e802f00000000000000000000000000000000000000000000000000000000815260040161194c929190612372565b60405180910390fd5b505050565b60008073ffffffffffffffffffffffffffffffffffffffff168373ffffffffffffffffffffffffffffffffffffffff1614158015611a1257508273ffffffffffffffffffffffffffffffffffffffff168473ffffffffffffffffffffffffffffffffffffffff1614806119d357506119d28484610a37565b5b80611a1157508273ffffffffffffffffffffffffffffffffffffffff166119f983610c61565b73ffffffffffffffffffffffffffffffffffffffff16145b5b90509392505050565b6000604051905090565b600080fd5b600080fd5b60007fffffffff0000000000000000000000000000000000000000000000000000000082169050919050565b611a6481611a2f565b8114611a6f57600080fd5b50565b600081359050611a8181611a5b565b92915050565b600060208284031215611a9d57611a9c611a25565b5b6000611aab84828501611a72565b91505092915050565b60008115159050919050565b611ac981611ab4565b82525050565b6000602082019050611ae46000830184611ac0565b92915050565b600081519050919050565b600082825260208201905092915050565b60005b83811015611b24578082015181840152602081019050611b09565b60008484015250505050565b6000601f19601f8301169050919050565b6000611b4c82611aea565b611b568185611af5565b9350611b66818560208601611b06565b611b6f81611b30565b840191505092915050565b60006020820190508181036000830152611b948184611b41565b905092915050565b600073ffffffffffffffffffffffffffffffffffffffff82169050919050565b6000611bc782611b9c565b9050919050565b611bd781611bbc565b8114611be257600080fd5b50565b600081359050611bf481611bce565b92915050565b6000819050919050565b611c0d81611bfa565b8114611c1857600080fd5b50565b600081359050611c2a81611c04565b92915050565b600080600060608486031215611c4957611c48611a25565b5b6000611c5786828701611be5565b9350506020611c6886828701611c1b565b9250506040611c7986828701611c1b565b9150509250925092565b600060208284031215611c9957611c98611a25565b5b6000611ca784828501611c1b565b91505092915050565b611cb981611bbc565b82525050565b6000602082019050611cd46000830184611cb0565b92915050565b60008060408385031215611cf157611cf0611a25565b5b6000611cff85828601611be5565b9250506020611d1085828601611c1b565b9150509250929050565b600080600060608486031215611d3357611d32611a25565b5b6000611d4186828701611be5565b9350506020611d5286828701611be5565b9250506040611d6386828701611c1b565b9150509250925092565b600060208284031215611d8357611d82611a25565b5b6000611d9184828501611be5565b91505092915050565b611da381611bfa565b82525050565b6000602082019050611dbe6000830184611d9a565b92915050565b611dcd81611ab4565b8114611dd857600080fd5b50565b600081359050611dea81611dc4565b92915050565b60008060408385031215611e0757611e06611a25565b5b6000611e1585828601611be5565b9250506020611e2685828601611ddb565b9150509250929050565b600080fd5b600080fd5b7f4e487b7100000000000000000000000000000000000000000000000000000000600052604160045260246000fd5b611e7282611b30565b810181811067ffffffffffffffff82111715611e9157611e90611e3a565b5b80604052505050565b6000611ea4611a1b565b9050611eb08282611e69565b919050565b600067ffffffffffffffff821115611ed057611ecf611e3a565b5b611ed982611b30565b9050602081019050919050565b82818337600083830152505050565b6000611f08611f0384611eb5565b611e9a565b905082815260208101848484011115611f2457611f23611e35565b5b611f2f848285611ee6565b509392505050565b600082601f830112611f4c57611f4b611e30565b5b8135611f5c848260208601611ef5565b91505092915050565b60008060008060808587031215611f7f57611f7e611a25565b5b6000611f8d87828801611be5565b9450506020611f9e87828801611be5565b9350506040611faf87828801611c1b565b925050606085013567ffffffffffffffff811115611fd057611fcf611a2a565b5b611fdc87828801611f37565b91505092959194509250565b6000604082019050611ffd6000830185611d9a565b61200a6020830184611d9a565b9392505050565b6000806040838503121561202857612027611a25565b5b600061203685828601611be5565b925050602061204785828601611be5565b9150509250929050565b7f4e487b7100000000000000000000000000000000000000000000000000000000600052602260045260246000fd5b6000600282049050600182168061209857607f821691505b6020821081036120ab576120aa612051565b5b50919050565b7f4f6e6c79206f7263686573747261746f72206f72206f776e6572000000000000600082015250565b60006120e7601a83611af5565b91506120f2826120b1565b602082019050919050565b60006020820190508181036000830152612116816120da565b9050919050565b7f4e487b7100000000000000000000000000000000000000000000000000000000600052601160045260246000fd5b600061215782611bfa565b91507fffffffffffffffffffffffffffffffffffffffffffffffffffffffffffffffff82036121895761218861211d565b5b600182019050919050565b7f536f756c626f756e643a205472616e73666572206e6f7420616c6c6f77656400600082015250565b60006121ca601f83611af5565b91506121d582612194565b602082019050919050565b600060208201905081810360008301526121f9816121bd565b9050919050565b600081905092915050565b600061221682611aea565b6122208185612200565b9350612230818560208601611b06565b80840191505092915050565b6000612248828561220b565b9150612254828461220b565b91508190509392505050565b7f4e487b7100000000000000000000000000000000000000000000000000000000600052601260045260246000fd5b600081519050919050565b600082825260208201905092915050565b60006122b68261228f565b6122c0818561229a565b93506122d0818560208601611b06565b6122d981611b30565b840191505092915050565b60006080820190506122f96000830187611cb0565b6123066020830186611cb0565b6123136040830185611d9a565b818103606083015261232581846122ab565b905095945050505050565b60008151905061233f81611a5b565b92915050565b60006020828403121561235b5761235a611a25565b5b600061236984828501612330565b91505092915050565b60006040820190506123876000830185611cb0565b6123946020830184611d9a565b939250505056fea264697066735822122037c3e34240e81c76324d079be62efd6942daad4046503ac36b1b13c5e2ee7ed164736f6c63430008140033",
  "linkReferences": {},
  "deployedLinkReferences": {}
}