{
  "_format": "hh-sol-artifact-1",
  "contractName": "ClaimRegistry",
  "sourceName": "contracts/ClaimRegistry.sol",
  "abi": [
    {
      "inputs": [],
      "stateMutability": "nonpayable",
      "type": "constructor"
    },
    {
      "anonymous": false,
      "inputs": [
        {
          "indexed": true,
          "internalType": "uint256",
          "name": "id",
          "type": "uint256"
        },
        {
          "indexed": false,
          "internalType": "string",
          "name": "claimUri",
          "type": "string"
        },
        {
          "indexed": false,
          "internalType": "bytes32",
          "name": "claimHash",
          "type": "bytes32"
        },
        {
          "indexed": true,
          "internalType": "address",
          "name": "submitter",
          "type": "address"
        }
      ],
      "name": "ClaimRegistered",
      "type": "event"
    },
    {
      "anonymous": false,
      "inputs": [
        {
          "indexed": true,
          "internalType": "uint256",
          "name": "id",
          "type": "uint256"
        },
        {
          "indexed": false,
          "internalType": "enum ClaimRegistry.Verdict",
          "name": "verdict",
          "type": "uint8"
        },
        {
          "indexed": false,
          "internalType": "uint8",
          "name": "confidence",
          "type": "uint8"
        }
      ],
      "name": "ClaimResolved",
      "type": "event"
    },
    {
      "inputs": [],
      "name": "claimCount",
      "outputs": [
        {
          "internalType": "uint256",
          "name": "",
          "type": "uint256"
        }
      ],
      "stateMutability": "view",
      "type": "function"
    },
    {
      "inputs": [
        {
          "internalType": "uint256",
          "name": "",
          "type": "uint256"
        }
      ],
      "name": "claims",
      "outputs": [
        {
          "internalType": "uint256",
          "name": "id",
          "type": "uint256"
        },
        {
          "internalType": "string",
          "name": "claimUri",
          "type": "string"
        },
        {
          "internalType": "bytes32",
          "name": "claimHash",
          "type": "bytes32"
        },
        {
          "internalType": "address",
          "name": "submitter",
          "type": "address"
        },
        {
          "internalType": "uint256",
          "name": "timestamp",
          "type": "uint256"
        },
        {
          "internalType": "enum ClaimRegistry.Verdict",
          "name": "verdict",
          "type": "uint8"
        },
        {
          "internalType": "uint8",
          "name": "confidence",
          "type": "uint8"
        },
        {
          "internalType": "bool",
          "name": "isResolved",
          "type": "bool"
        }
      ],
      "stateMutability": "view",
      "type": "function"
    },
    {
      "inputs": [
        {
          "internalType": "uint256",
          "name": "_id",
          "type": "uint256"
        }
      ],
      "name": "getClaim",
      "outputs": [
        {
          "components": [
            {
              "internalType": "uint256",
              "name": "id",
              "type": "uint256"
            },
            {
              "internalType": "string",
              "name": "claimUri",
              "type": "string"
            },
            {
              "internalType": "bytes32",
              "name": "claimHash",
              "type": "bytes32"
            },
            {
              "internalType": "address",
              "name": "submitter",
              "type": "address"
            },
            {
              "internalType": "uint256",
              "name": "timestamp",
              "type": "uint256"
            },
            {
              "internalType": "enum ClaimRegistry.Verdict",
              "name": "verdict",
              "type": "uint8"
            },
            {
              "internalType": "uint8",
              "name": "confidence",
              "type": "uint8"
            },
            {
              "internalType": "bool",
              "name": "isResolved",
              "type": "bool"
            }
          ],
          "internalType": "struct ClaimRegistry.Claim",
          "name": "",
          "type": "tuple"
        }
      ],
      "stateMutability": "view",
      "type": "function"
    },
    {
      "inputs": [],
      "name": "orchestrator",
      "outputs": [
        {
          "internalType": "address",
          "name": "",
          "type": "address"
        }
      ],
      "stateMutability": "view",
      "type": "function"
    },
    {
      "inputs": [],
      "name": "owner",
      "outputs": [
        {
          "internalType": "address",
          "name": "",
          "type": "address"
        }
      ],
      "stateMutability": "view",
      "type": "function"
    },
    {
      "inputs": [
        {
          "internalType": "string",
          "name": "_claimUri",
          "type": "string"
        },
        {
          "internalType": "bytes32",
          "name": "_claimHash",
          "type": "bytes32"
        }
      ],
      "name": "registerClaim",
      "outputs": [
        {
          "internalType": "uint256",
          "name": "",
          "type": "uint256"
        }
      ],
      "stateMutability": "nonpayable",
      "type": "function"
    },
    {
      "inputs": [
        {
          "internalType": "uint256",
          "name": "_id",
          "type": "uint256"
        },
        {
          "internalType": "enum ClaimRegistry.Verdict",
          "name": "_verdict",
          "type": "uint8"
        },
        {
          "internalType": "uint8",
          "name": "_confidence",
          "type": "uint8"
        }
      ],
      "name": "resolveClaim",
      "outputs": [],
      "stateMutability": "nonpayable",
      "type": "function"
    },
    {
      "inputs": [
        {
          "internalType": "address",
          "name": "_orchestrator",
          "type": "address"
        }
      ],
      "name": "setOrchestrator",
      "outputs": [],
      "stateMutability": "nonpayable",
      "type": "function"
    }
  ],
  "bytecode": "0x6080604052600060015534801561001557600080fd5b5033600260006101000a81548173ffffffffffffffffffffffffffffffffffffffff021916908373ffffffffffffffffffffffffffffffffffffffff16021790555033600360006101000a81548173ffffffffffffffffffffffffffffffffffffffff021916908373ffffffffffffffffffffffffffffffffffffffff1602179055506117cf806100a76000396000f3fe608060405234801561001057600080fd5b50600436106100885760003560e01c8063a3bbf2151161005b578063a3bbf21514610129578063a888c2cd14610145578063b74795d91461017c578063cd28ef0d1461019a57610088565b80635aef24471461008d5780638da4d3c9146100bd5780638da5cb5b146100db5780639fd9d3c8146100f9575b600080fd5b6100a760048036038101906100a29190610b10565b6101b6565b6040516100b49190610d94565b60405180910390f35b6100c56103a0565b6040516100d29190610dc5565b60405180910390f35b6100e36103a6565b6040516100f09190610def565b60405180910390f35b610113600480360381019061010e9190610f6b565b6103cc565b6040516101209190610dc5565b60405180910390f35b610143600480360381019061013e9190611018565b6105ae565b005b61015f600480360381019061015a9190610b10565b610840565b6040516101739897969594939291906110f1565b60405180910390f35b610184610957565b6040516101919190610def565b60405180910390f35b6101b460048036038101906101af91906111a2565b61097d565b005b6101be610a51565b6001548210610202576040517f08c379a00000000000000000000000000000000000000000000000000000000081526004016101f99061121b565b60405180910390fd5b600080838152602001908152602001600020604051806101000160405290816000820154815260200160018201805461023a9061126a565b80601f01602080910402602001604051908101604052809291908181526020018280546102669061126a565b80156102b35780601f10610288576101008083540402835291602001916102b3565b820191906000526020600020905b81548152906001019060200180831161029657829003601f168201915b50505050508152602001600282015481526020016003820160009054906101000a900473ffffffffffffffffffffffffffffffffffffffff1673ffffffffffffffffffffffffffffffffffffffff1673ffffffffffffffffffffffffffffffffffffffff168152602001600482015481526020016005820160009054906101000a900460ff16600381111561034b5761034a610c36565b5b600381111561035d5761035c610c36565b5b81526020016005820160019054906101000a900460ff1660ff1660ff1681526020016005820160029054906101000a900460ff1615151515815250509050919050565b60015481565b600260009054906101000a900473ffffffffffffffffffffffffffffffffffffffff1681565b600080600160008154809291906103e2906112ca565b9190505590506040518061010001604052808281526020018581526020018481526020013373ffffffffffffffffffffffffffffffffffffffff1681526020014281526020016000600381111561043c5761043b610c36565b5b8152602001600060ff1681526020016000151581525060008083815260200190815260200160002060008201518160000155602082015181600101908161048391906114be565b506040820151816002015560608201518160030160006101000a81548173ffffffffffffffffffffffffffffffffffffffff021916908373ffffffffffffffffffffffffffffffffffffffff1602179055506080820151816004015560a08201518160050160006101000a81548160ff0219169083600381111561050a57610509610c36565b5b021790555060c08201518160050160016101000a81548160ff021916908360ff16021790555060e08201518160050160026101000a81548160ff0219169083151502179055509050503373ffffffffffffffffffffffffffffffffffffffff16817ffa766e91e654d9a7cf2701499a358d5fd4d3782fc0bc0b9b8e3f868af72d28cf868660405161059c929190611590565b60405180910390a38091505092915050565b600360009054906101000a900473ffffffffffffffffffffffffffffffffffffffff1673ffffffffffffffffffffffffffffffffffffffff163373ffffffffffffffffffffffffffffffffffffffff1614806106575750600260009054906101000a900473ffffffffffffffffffffffffffffffffffffffff1673ffffffffffffffffffffffffffffffffffffffff163373ffffffffffffffffffffffffffffffffffffffff16145b610696576040517f08c379a000000000000000000000000000000000000000000000000000000000815260040161068d9061160c565b60405180910390fd5b60015483106106da576040517f08c379a00000000000000000000000000000000000000000000000000000000081526004016106d19061121b565b60405180910390fd5b60008084815260200190815260200160002060050160029054906101000a900460ff161561073d576040517f08c379a000000000000000000000000000000000000000000000000000000000815260040161073490611678565b60405180910390fd5b60648160ff161115610784576040517f08c379a000000000000000000000000000000000000000000000000000000000815260040161077b906116e4565b60405180910390fd5b60008060008581526020019081526020016000209050828160050160006101000a81548160ff021916908360038111156107c1576107c0610c36565b5b0217905550818160050160016101000a81548160ff021916908360ff16021790555060018160050160026101000a81548160ff021916908315150217905550837fc89c5765fd2ca7c1160f66f582bfc9bee5334a191510c16b1c7368d8badc2f738484604051610832929190611704565b60405180910390a250505050565b60006020528060005260406000206000915090508060000154908060010180546108699061126a565b80601f01602080910402602001604051908101604052809291908181526020018280546108959061126a565b80156108e25780601f106108b7576101008083540402835291602001916108e2565b820191906000526020600020905b8154815290600101906020018083116108c557829003601f168201915b5050505050908060020154908060030160009054906101000a900473ffffffffffffffffffffffffffffffffffffffff16908060040154908060050160009054906101000a900460ff16908060050160019054906101000a900460ff16908060050160029054906101000a900460ff16905088565b600360009054906101000a900473ffffffffffffffffffffffffffffffffffffffff1681565b600260009054906101000a900473ffffffffffffffffffffffffffffffffffffffff1673ffffffffffffffffffffffffffffffffffffffff163373ffffffffffffffffffffffffffffffffffffffff1614610a0d576040517f08c379a0000000000000000000000000000000000000000000000000000000008152600401610a0490611779565b60405180910390fd5b80600360006101000a81548173ffffffffffffffffffffffffffffffffffffffff021916908373ffffffffffffffffffffffffffffffffffffffff16021790555050565b604051806101000160405280600081526020016060815260200160008019168152602001600073ffffffffffffffffffffffffffffffffffffffff1681526020016000815260200160006003811115610aad57610aac610c36565b5b8152602001600060ff1681526020016000151581525090565b6000604051905090565b600080fd5b600080fd5b6000819050919050565b610aed81610ada565b8114610af857600080fd5b50565b600081359050610b0a81610ae4565b92915050565b600060208284031215610b2657610b25610ad0565b5b6000610b3484828501610afb565b91505092915050565b610b4681610ada565b82525050565b600081519050919050565b600082825260208201905092915050565b60005b83811015610b86578082015181840152602081019050610b6b565b60008484015250505050565b6000601f19601f8301169050919050565b6000610bae82610b4c565b610bb88185610b57565b9350610bc8818560208601610b68565b610bd181610b92565b840191505092915050565b6000819050919050565b610bef81610bdc565b82525050565b600073ffffffffffffffffffffffffffffffffffffffff82169050919050565b6000610c2082610bf5565b9050919050565b610c3081610c15565b82525050565b7f4e487b7100000000000000000000000000000000000000000000000000000000600052602160045260246000fd5b60048110610c7657610c75610c36565b5b50565b6000819050610c8782610c65565b919050565b6000610c9782610c79565b9050919050565b610ca781610c8c565b82525050565b600060ff82169050919050565b610cc381610cad565b82525050565b60008115159050919050565b610cde81610cc9565b82525050565b600061010083016000830151610cfd6000860182610b3d565b5060208301518482036020860152610d158282610ba3565b9150506040830151610d2a6040860182610be6565b506060830151610d3d6060860182610c27565b506080830151610d506080860182610b3d565b5060a0830151610d6360a0860182610c9e565b5060c0830151610d7660c0860182610cba565b5060e0830151610d8960e0860182610cd5565b508091505092915050565b60006020820190508181036000830152610dae8184610ce4565b905092915050565b610dbf81610ada565b82525050565b6000602082019050610dda6000830184610db6565b92915050565b610de981610c15565b82525050565b6000602082019050610e046000830184610de0565b92915050565b600080fd5b600080fd5b7f4e487b7100000000000000000000000000000000000000000000000000000000600052604160045260246000fd5b610e4c82610b92565b810181811067ffffffffffffffff82111715610e6b57610e6a610e14565b5b80604052505050565b6000610e7e610ac6565b9050610e8a8282610e43565b919050565b600067ffffffffffffffff821115610eaa57610ea9610e14565b5b610eb382610b92565b9050602081019050919050565b82818337600083830152505050565b6000610ee2610edd84610e8f565b610e74565b905082815260208101848484011115610efe57610efd610e0f565b5b610f09848285610ec0565b509392505050565b600082601f830112610f2657610f25610e0a565b5b8135610f36848260208601610ecf565b91505092915050565b610f4881610bdc565b8114610f5357600080fd5b50565b600081359050610f6581610f3f565b92915050565b60008060408385031215610f8257610f81610ad0565b5b600083013567ffffffffffffffff811115610fa057610f9f610ad5565b5b610fac85828601610f11565b9250506020610fbd85828601610f56565b9150509250929050565b60048110610fd457600080fd5b50565b600081359050610fe681610fc7565b92915050565b610ff581610cad565b811461100057600080fd5b50565b60008135905061101281610fec565b92915050565b60008060006060848603121561103157611030610ad0565b5b600061103f86828701610afb565b935050602061105086828701610fd7565b925050604061106186828701611003565b9150509250925092565b600082825260208201905092915050565b600061108782610b4c565b611091818561106b565b93506110a1818560208601610b68565b6110aa81610b92565b840191505092915050565b6110be81610bdc565b82525050565b6110cd81610c8c565b82525050565b6110dc81610cad565b82525050565b6110eb81610cc9565b82525050565b600061010082019050611107600083018b610db6565b8181036020830152611119818a61107c565b905061112860408301896110b5565b6111356060830188610de0565b6111426080830187610db6565b61114f60a08301866110c4565b61115c60c08301856110d3565b61116960e08301846110e2565b9998505050505050505050565b61117f81610c15565b811461118a57600080fd5b50565b60008135905061119c81611176565b92915050565b6000602082840312156111b8576111b7610ad0565b5b60006111c68482850161118d565b91505092915050565b7f496e76616c696420636c61696d20494400000000000000000000000000000000600082015250565b600061120560108361106b565b9150611210826111cf565b602082019050919050565b60006020820190508181036000830152611234816111f8565b9050919050565b7f4e487b7100000000000000000000000000000000000000000000000000000000600052602260045260246000fd5b6000600282049050600182168061128257607f821691505b6020821081036112955761129461123b565b5b50919050565b7f4e487b7100000000000000000000000000000000000000000000000000000000600052601160045260246000fd5b60006112d582610ada565b91507fffffffffffffffffffffffffffffffffffffffffffffffffffffffffffffffff82036113075761130661129b565b5b600182019050919050565b60008190508160005260206000209050919050565b60006020601f8301049050919050565b600082821b905092915050565b6000600883026113747fffffffffffffffffffffffffffffffffffffffffffffffffffffffffffffffff82611337565b61137e8683611337565b95508019841693508086168417925050509392505050565b6000819050919050565b60006113bb6113b66113b184610ada565b611396565b610ada565b9050919050565b6000819050919050565b6113d5836113a0565b6113e96113e1826113c2565b848454611344565b825550505050565b600090565b6113fe6113f1565b6114098184846113cc565b505050565b5b8181101561142d576114226000826113f6565b60018101905061140f565b5050565b601f8211156114725761144381611312565b61144c84611327565b8101602085101561145b578190505b61146f61146785611327565b83018261140e565b50505b505050565b600082821c905092915050565b600061149560001984600802611477565b1980831691505092915050565b60006114ae8383611484565b9150826002028217905092915050565b6114c782610b4c565b67ffffffffffffffff8111156114e0576114df610e14565b5b6114ea825461126a565b6114f5828285611431565b600060209050601f8311600181146115285760008415611516578287015190505b61152085826114a2565b865550611588565b601f19841661153686611312565b60005b8281101561155e57848901518255600182019150602085019450602081019050611539565b8683101561157b5784890151611577601f891682611484565b8355505b6001600288020188555050505b505050505050565b600060408201905081810360008301526115aa818561107c565b90506115b960208301846110b5565b9392505050565b7f4f6e6c79206f7263686573747261746f72206f72206f776e6572000000000000600082015250565b60006115f6601a8361106b565b9150611601826115c0565b602082019050919050565b60006020820190508181036000830152611625816115e9565b9050919050565b7f436c61696d20616c7265616479207265736f6c76656400000000000000000000600082015250565b600061166260168361106b565b915061166d8261162c565b602082019050919050565b6000602082019050818103600083015261169181611655565b9050919050565b7f436f6e666964656e6365206d75737420626520302d3130300000000000000000600082015250565b60006116ce60188361106b565b91506116d982611698565b602082019050919050565b600060208201905081810360008301526116fd816116c1565b9050919050565b600060408201905061171960008301856110c4565b61172660208301846110d3565b9392505050565b7f4f6e6c79206f776e657200000000000000000000000000000000000000000000600082015250565b6000611763600a8361106b565b915061176e8261172d565b602082019050919050565b6000602082019050818103600083015261179281611756565b905091905056fea26469706673582212207d8a7dc43bd6fa163b0674ce217e5dae38429c045222b5b66915131687e78d0264736f6c63430008140033",
  "linkReferences": {},
  "deployedLinkReferences": {}
}